:10000000B1C300000C94B533CAC30000C8C30000DC
:10001000C6C30000C4C30000C2C30000C0C30000C8
:10002000BEC30000BCC300000C94F3310C94DB325F
:100030000C94A831B4C30000B2C30000B0C30000E8
:10004000AEC30000ACC30000AAC30000A8C30000F8
:10005000A6C300000C94CF31A2C30000A0C30000CF
:100060009EC300009CC300009AC3000098C3000018
:1000700096C3000094C3000092C3000090C3000028
:100080008EC300008CC300008AC3000088C3000038
:1000900086C3000084C3000082C3000080C3000048
:1000A0007EC300007CC300007AC300000501090282
:1000B000A10185020901A1000509190129081500FE
:1000C0002501950875018102050109300931158165
:1000D000257F95027508810609381581257F9501D0
:1000E00075088106050C0A38021581257F95017572
:1000F000088106C0C005010980A101850319012AF4
:10010000B700150126B700950175108100C0050CD8
:100110000901A101850419012AA002150126A002E6
:10012000950175108100C00660FF0961A101096297
:10013000150026FF00952075088102096315002629
:10014000FF00952075089102C005010906A101056F
:100150000719E029E7150025019508750181029529
:1001600001750881010507190029FF150026FF0008
:100170009506750881000508190129051500250156
:10018000950575019102950175039101C009025B06
:1001900000030100A0FA09040000010301010009A5
:1001A0002111010001224400070581030800010913
:1001B00004010002030000000921110100012222B4
:1001C0000007058203200001070503032000010941
:1001D0000402000103000000092111010001227B3B
:1001E000000705840320000112010002000000083E
:1001F0004D4435340100010203011C0376006900FF
:1002000061006C003A006600360034006300320082
:1002100062003300630000002803440061006300B3
:10022000740079006C0020004D0061006E007500C4
:1002300066006F0072006D00200034007800350009
:1002400000000E037400730068006F0072007400F9
:10025000000004030904000000000000000000008A
:10026000000000000000000000000000000000008E
:10027000000000000000000000007E0F00D4FFFF1F
:10028000FFC70000007800000000000000002A2BDB
:100290002800000000000000000000000000000036
:1002A0000029000000002C1E34202122243426279F
:1002B000252E362D3738271E1F20212223242526C0
:1002C0003333362E37381F0405060708090A0B0C8E
:1002D0000D0E0F101112131415161718191A1B1CD6
:1002E0001D2F3130232D350405060708090A0B0C94
:1002F0000D0E0F101112131415161718191A1B1CB6
:100300001D2F3130354C14001A000800150017005D
:1003100004001600070009000A001D001B0006006B
:100320001900050000002F00300029222A210000BA
:10033000350021524A002B00130012000C00180057
:100340001C0033000F000E000D000B0034003700BE
:1003500036001000110000002E002D0028222C2451
:100360000000E30022524D004C00007C0100CD0053
:10037000010001000100CF00CE00D000010001000B
:100380000100010001000100000001000100010066
:100390000100000001000100010001004B0001000C
:1003A00052000100A9004E004F0051005000A8006B
:1003B0003102380231003800AA000000D200D1001A
:1003C00001000100000001000100010001003A00ED
:1003D0003B003C003D003E001E001F0020002100AD
:1003E00022001E021F0220022102220200004400FD
:1003F00045000100010000000100010001000100B2
:1004000043004200410040003F0027002600250035
:1004100024002300270226022502240223020000D2
:1004200001000100010001000000010001000100C5
:10043000010001000100BB03141389140000020035
:100440000200B70314138914000003000100BC0369
:1004500014138914000004000200A103141389146A
:10046000AD0705000100BD03141389140000060048
:100470000200A30314138914000007000200B9034B
:1004800014138914000009000200A5031413891431
:10049000B6070A000200A70314138914B6070B005D
:1004A0000200A90314138914B6070C000200AB0361
:1004B00014138914B6070D000200AD031413891438
:1004C000B6070E000200AF0314138914B6070F001D
:1004D0000200B10314138914B60710000200B3031D
:1004E00014138914B60711000200B50314138914FC
:1004F000B60712000200BF03141389140000130092
:100500000200C10314138914000014000100C30386
:10051000141389140000150000000000E307860E84
:10052000000016000100BE032B139F1400001700EB
:100530000101BE032B139F14000018000102BE032B
:100540002B139F14000019000200C5031413891413
:1005500000001A000103BE032B139F1400001B00B0
:100560000200C703141389140000FD377A585A009B
:100570000004E6D6B4460200210116000000742FE4
:10058000E5A3E0049D01855D003D8889C65436C31E
:10059000174FE4DD5C7431C9895FE41655C02863E8
:1005A00071F477880B905B5F3BAFF0EE0AF02F1F82
:1005B00012981CD91D504312150FF716A1A4706490
:1005C0002A49C44638C56742C89316B7E3E9D83903
:1005D000CC4067DA04D6D5EB0F6B2911E0A096A0CA
:1005E00050FFEFFE0BE2DE158C51FC7AA7CBE5CB7A
:1005F0002DC5884FC353D11426549E04E7C01AF268
:10060000DA1AD8B43656E1A959D5DEEEACC3A0CE7D
:1006100049757B79B7C44B449614785946FF98A026
:10062000947A110D8B4C0AC8A2E33B2DAF9C224B50
:10063000173791AA59344BEF571EA9B680ADFB5519
:10064000137FF51127D6CDB5E42D7F03BE64B58D9C
:10065000D8DD61690BD3F80E387721BE53BEDD6853
:1006600033BD54E39CB67FBE0BA07BACB40787A51B
:100670004FC339121FD4A031444D2C4BE81418C27B
:10068000C8BB489DFE54062E22124A1DE90A7B1162
:10069000E990649A5B95FDEC26110CA57D6D6229AD
:1006A00058D24EE532F9D7C85AB8C73AADEFC62589
:1006B000248C19E0FFF2162FF07230CAD20F694471
:1006C000AB63EEB086DFCF1C8548796C468937FF77
:1006D000EF2CB631AEB4D93660C69085E34DBE3E40
:1006E000CA06D14AD4EC0792B8DAE94BF5AD5C14EE
:1006F000E76E1A0F3F10EFCF788FB0C5E8802F5DFF
:100700009DD7D68E23B66AD9525411B19F5F00008F
:100710000000EDE4EEF52B21CDB90001A1039E0907
:1007200000005EC1FB04B1C467FB020000000004CE
:10073000595A4C4C4C4C4C4C4C4C4C4C4C4C4C4CDE
:100740004C004C4C4C4C004C4C4C4C525252525263
:10075000525252525252525252520052525252001D
:100760005252525211241FBECFEFDAE0DEBFCDBF8E
:1007700011E0A0E0B1E0EAE9FCE602C005900D92CC
:10078000A43CB107D9F723E0A4ECB1E001C01D926D
:10079000AE3CB207E1F70E94C32A0C94B23530CCCC
:1007A0009C01FB0191509F31B0F4832F817034FF85
:1007B0000AC08295807F31FD806232FD806433FD06
:1007C00080680995089531FD826032FD846033FFB1
:1007D000F8CF8860F6CF80E0F4CF982F92959F7085
:1007E00061F420E0982F892F8695869511F02E5F71
:1007F000982F892F8695820F089524E0F4CF282F13
:1008000092959F70963099F060F4925F9F7092304D
:1008100030F4203FB1F038F481E0283E38F080E039
:1008200008959A5FF3CF81E0243FC9F7089591E0DE
:10083000813F09F090E081E0283E08F080E0892BBC
:10084000089581E008958093550308958093560399
:10085000089521E001C0220F8A95EAF7809156039E
:10086000822BF4CF21E001C0220F8A95EAF7822F74
:100870008095909156038923E9CF292F9A3090F5DE
:10088000853080F590E035E0239F800D911D112487
:1008900051E081FD54E080FD550F82FD529523E02B
:1008A000969587952A95E1F7FC01EE0FFF1FE80F5B
:1008B000F91FE457FD4F20E030E070E04191DF0187
:1008C000CB01022E02C0969587950A94E2F7869591
:1008D000880B8427852384278E932F5F3F4F2330F7
:1008E000310561F70895292F9A3070F5853060F54C
:1008F00090E035E0239F800D911D1124682F6770D3
:1009000023E0969587952A95E1F7FC01EE0FFF1FEE
:10091000E80FF91FE457FD4F40E050E080E02191DF
:1009200030E0062E02C0369527950A94E2F7217032
:10093000042E01C0220F0A94EAF7822B4F5F5F4F0B
:100940004330510561F7089580E008959091560372
:1009500021E030E0F90101C0EE0F8A95EAF7D901F4
:1009600001C0AA0F6A95EAF7EA2B01C0220F4A9547
:10097000EAF7892F8E23E81303C0892F822B66CFD5
:100980002095822F8923FBCFE09161039091600332
:10099000E91302C080E008959F0157E0E59FF00150
:1009A0001124EE59FC4F5181561306C05081581343
:1009B00003C05581541305C02F5F3F4FF901E77005
:1009C000E7CF81E0089580918B0290E020E0022E35
:1009D000001C0008281709060CF008952F5FF7CFB8
:1009E000FC01DB018481813039F514968C911497D8
:1009F000813011F5818125E0E081F0E0289FE00D54
:100A0000F11D1124EE5CF84F94919A32A9F01196E1
:100A10008C91EE91F0E0289FE00DF11D1124EE5C29
:100A2000F84FE49181E09E1301C080E091E0EA324A
:100A300009F090E0892B089581E008959C01809150
:100A400057038D7999F4303570F43032B0F4233394
:100A5000310501F1C0F481E02E31310580F42430FC
:100A6000310520F00895932F965511F080E00895F8
:100A7000C901805F96450797C8F330E0E8CF2C3274
:100A80003105A1F708952653310981E0233031055E
:100A900048F3ECCF81E008958091610320916003D9
:100AA000281301C0089501968770FACF90915B03D7
:100AB0008095892380935B03282F277081F4891701
:100AC00071F09091CA0392FF0AC08695869586952B
:100AD000C9DE10925B0310925C0310925D030895CF
:100AE00090915703982B9093570308958095982FD2
:100AF0008091570389238093570308958095982FF9
:100B000080915A03892380935A0308958091530357
:100B1000811531F010925303109251031092520339
:100B20000895803E9105D1F1C8F48133910509F40F
:100B300081C048F48932910509F471C08A32910567
:100B400009F47FC0089589339105E1F08238910559
:100B5000C9F08533910509F45DC00895843E91057F
:100B6000D1F148F4823E910531F1833E910541F186
:100B700081EE90E00895863E9105C1F1873E910592
:100B8000F1F108952091C903237009F064C0209108
:100B9000CA0323FF14C089E290E008952091C9039D
:100BA00020FD45C03091CA0330FF09C024FD24C098
:100BB00083EE90E008952091C90322FDF7CF0895B8
:100BC0002091C90322FD44C03091CA0330FD43C0C7
:100BD00024FFF5CF11C02091CA0321FFF0CF8091EF
:100BE000C90384FD09C087EE90E008952091C903F0
:100BF00023FFE5CF24FFF7CF80E090E00895209118
:100C0000C90323FD2BC03091CA0331FFE1CF84EE2D
:100C100090E008952091C90325FFD1CFBCCF20914A
:100C2000C90325FD1EC02091CA0323FFC8CF89E355
:100C300090E008952091C90326FFC1CF8AE290E099
:100C400008952091C90326FFBACF81E390E008956B
:100C500082EE90E0089580EE90E0089586EE90E0B8
:100C6000089585E390E008959091C90392FF10C024
:100C700041E0282F2471243009F040E031E0282F92
:100C80002871283009F030E0431711F02CE082275A
:100C900093FF10C041E0282F2471243109F040E077
:100CA00031E0282F2871283109F030E0431711F086
:100CB0002CE082273091CA0330FF10C051E0282F6A
:100CC0002171213009F050E041E0282F28712830AF
:100CD00009F040E0541711F029E0822731FF10C0DD
:100CE00041E0282F2171213109F040E031E0282F27
:100CF0002871283109F030E0431711F029E08227EC
:100D000094FD877E08950F931F93CF93DF9309DFA0
:100D1000EC01D23508F04DC0D03508F0C3C0C03E5C
:100D2000D10530F5CD3CD10508F09AC0C83AD105BF
:100D300078F4C53AD10508F090C0C130D10599F1D9
:100D4000CE010497813A910570F1C0E0D0E02BC04C
:100D5000CE01885A91094B97C0F7C85AD0E0CC0F02
:100D6000DD1FC95ADE4F0990D881C02DD4641BC045
:100D7000D03490F4D03208F0A8C0C83ED10598F025
:100D8000CE0191509F3108F78D2F6EDF082F8C2FE9
:100D900090E0C7DE902B54C08C2F90E0C2DEDF7055
:100DA000C82FD92BD06ACE01DF91CF911F910F911F
:100DB0000895C03882E5D807B8F5C03682E5D8076F
:100DC00008F056C0C03482E5D807C8F4C03282E5C6
:100DD000D80708F047C08C2F8695869520E2829F21
:100DE000C0011124C37021E030E002C0220F331F84
:100DF000CA95E2F7E901C82BD92BDD68D4CF8C2F37
:100E000086958695877020E2829FC0011124C37069
:100E100021E030E002C0220F331FCA95E2F7E9015A
:100E2000C82BD92BDC68BFCFC03C82E5D80750F473
:100E30008C2F8F71C03AD24580F5982F84EF906A3D
:100E4000EC01B1CFCE01805C9245809708F07DCF58
:100E5000DC2FDF71C0EFD06AA6CFA497D064A3CFF8
:100E6000D065A1CF8C2F8F71D82FC1EFD06A9BCFC7
:100E70008C2F86958695877020E2829FC001112471
:100E8000C37021E030E002C0220F331FCA95E2F7A1
:100E9000E901C82BD92BDA6886CFE6DEC0E0D82F6F
:100EA000D06281CF8C2F8F71DFDE93E0CC0FDD1FFE
:100EB0009A95E1F7DF70282F84FF04C090E1899FA5
:100EC00090011124C22FD0696ECF8D2F8F71CCDE8F
:100ED000082F8C2F90E025DE902BEC01E1CF80E0F5
:100EE0000895F894E82FE295EF70F0E041A18F703B
:100EF00021E001C0220F8A95EAF7922F9095942362
:100F000091A392A1822F892B82A378940895E091D6
:100F10007102F0917202309739F00284F385E02D6E
:100F2000309711F060E209950895EFEBF2E080E070
:100F300090E06AED79E24DEF59E220E73AE266830C
:100F400077834087518722873387868797870196E3
:100F500070968830910599F708958091A10390913A
:100F6000A203809311019093120108958091A5032B
:100F70009091A6036AE070E00E94F7346093A102AA
:100F80008091A703809330018091AB0380932F0160
:100F90008091AD0380932E018091AF039091B003B7
:100FA0006AE070E00E94F734609320028091B10300
:100FB000809313018091B30380932D018091B50339
:100FC00080932C010895CF93DF938FEF9FEF4430F0
:100FD000510508F458C02091C90321FB882780F9E6
:100FE00090E0880F991F22FBAA27A0F9B0E0AA0F72
:100FF000BB1FAA0FBB1F8A2B9B2BC22FC1708C2B30
:1010000023FBEE27E0F9F0E053E0EE0FFF1F5A95C7
:10101000E1F78E2B9F2B24FB442740F930E1439FBF
:10102000A0011124842B952B25FB442740F930E2A5
:10103000439FA0011124842B952B26FB442740F9C4
:1010400030E4439FA0011124842B952B27FB2227FA
:1010500020F940E8249F90011124822B932B2091AA
:10106000CA03422F4170942B26952170322F330FE3
:10107000932BA92FAA0FAA0BFB0180839183A28334
:10108000A38380E090E0DF91CF9108959C0143E03D
:10109000369527954A95E1F72E7130E0F901E55133
:1010A000FE4F408151818F7090E0E82F81E002C0B7
:1010B000880F991FEA95E2F7611541F0482B592BEB
:1010C00025513E4FF90140835183089580959095B5
:1010D00048235923F5CFFC01AC014B5F5F4F8FEFE5
:1010E00061E39191892728E030E0982F990F87FFDD
:1010F00009C0892F862721503040B9F7E417F5073A
:1011000081F70895892FF7CF0F931F93CF9301E0B5
:10111000082E01C0000F0A94EAF7C09150039C2FDB
:101120009023A9F490915B039695969596958913D3
:1011300006C010925B0310925C0310925D0389DB82
:10114000C027C0935003CF911F910F9108958ADB60
:10115000F7CF382F25EB3203C001112497FF04C0CD
:1011600080589109892F089580589F4FFBCF809117
:10117000A8026091A9037091AA0380FF14C0209176
:101180002F01269FC001279F900D112496958795CA
:1011900096958795BC0160387105E8F56115710574
:1011A000E1F1862F089581FF0AC020912F01269F2B
:1011B000C001279F900D112496958795EBCF82FF54
:1011C00009C080912F019B01829FB001839F700D08
:1011D0001124E1CF8091A7028115E9F290912E01AF
:1011E00020912F01891738F0CB01289FB001299F4A
:1011F000700D1124D0CF289F90011124269FA001AB
:10120000279F500D369F500D1124692F70E0CA01A1
:101210000E94F734C0CF8FE7089581E00895809150
:10122000A80280FF0CC060912D0170E07595679554
:10123000759567956115710541F1862F089581FFB8
:1012400006C060912D0170E075956795F3CF6091B0
:101250002D0182FD0BC09091A6029115A1F0609125
:101260002C0180912D01961738F0682F70E06038BE
:10127000710500F38FE70895899FC001112470E084
:101280000E940B35F4CF61E0D8CF81E00895FA01D8
:10129000309709F00995089580916502811571F0E4
:1012A000E0917102F0917202309739F00190F08173
:1012B000E02D309711F00995089580E00895A3E09E
:1012C000B0E0E5E6F9E00C94D0342091E7013091EC
:1012D000E80128173907B1F08093E7019093E801FE
:1012E000E0917102F0917202309761F00084F18513
:1012F000E02D309739F023E029838A839B83CE0148
:10130000019609952396E2E00C94EC34A3E0B0E05A
:10131000ECE8F9E00C94D0342091E5013091E6013D
:1013200028173907B1F08093E5019093E601E09129
:101330007102F0917202309761F00084F185E02D26
:10134000309739F024E029838A839B83CE0101966C
:1013500009952396E2E00C94EC34A8ECB1E0EFEFB1
:1013600090E02C91821759F01196EF3F19F421115A
:1013700001C0E92F9F5F9630A1F7EF3F09F4089570
:10138000FE2FFF0FFF0BEA53FE4F82830895E8EC18
:10139000F1E09191891302C0DF011E9291E0EE3CD1
:1013A000F907B9F708958091010108952FB7F894CE
:1013B0008091E1019091E201A091E301B091E401FB
:1013C0002FBF08958091A3039091A403892B81F0EE
:1013D000EDDF2091510330915203821B930B9C014E
:1013E00081E04091A3035091A4032417350708F42A
:1013F00080E008959091CA0392FF0EC0982F990F34
:10140000990F990F962B90935B0323DACFDF80938C
:101410005C0390935D0308951CCA90915303292F98
:10142000282359F0809589238093530390E08111FC
:10143000BDDF80935103909352030895CF93C82F3B
:101440008091CA0382FF0BC0809153038C1739F03F
:10145000ADDF8093510390935203C0935303CF9118
:101460000895A4DF9C019091AB028091AC02982B6F
:1014700021F020932302309324029091AD028091B9
:10148000AE02982B21F02093210230932202E091AA
:101490007102F0917202309759F00680F781E02DC9
:1014A000309731F082E08093A90289EA92E00995B1
:1014B0000895611509F440C0E82FED5CE33148F46C
:1014C000F0E0EC54FA4C0C941E3551DE819580937B
:1014D000AC02C7CF4CDEFBCF4ADE81958093AB02D6
:1014E000F8CF45DEFBCF9BDE8093AD02F2CF97DED7
:1014F0008195FACF94DE81958093AE02EACF8FDE9C
:10150000FBCF815D990B21E001C0220F8A95EAF79C
:101510008091AA02822B8093AA02DBCF8091A8023D
:1015200081608093A802D5CF8091A8028260F9CF14
:101530008091A8028460F5CF4091AB028D3C59F4B4
:101540008091AC0287FF0DC01092AC02411559F496
:101550001092A70208C08E3C81F48091AC0218164C
:101560009CF3411581F08091AD029091AE02892BE0
:1015700009F0AFCF1092A602ACCF8F3C41F447FFE9
:10158000F0CF1092AB028091AC028115E0CF803D8C
:1015900019F41416B4F3E5CF9091AD02893D29F406
:1015A0001916FCF61092AD02DCCF8A3D19F497FFB4
:1015B000D8CFF8CF9091AE028B3D29F497FFD1CFD1
:1015C0001092AE02CECF8C3D19F41916CCF3C9CFD0
:1015D000982F915D983078F4815D990B21E001C0DE
:1015E000220F8A95EAF7822F80959091AA0289238B
:1015F0008093AA02B6CF8D3D31F48091A8028E7FF0
:101600008093A802AECF8E3D21F48091A8028D7FF9
:10161000F7CF8F3D09F0A5CF8091A8028B7FF0CF47
:101620002FB7F8946091E1017091E2018091E3019C
:101630009091E4012FBF089580916502811539F0E2
:10164000EFDF462F572FBC01CB01BA010895E8DF29
:10165000DC01CB0140916702509168026091690200
:1016600070916A02480F591F6A1F7B1FEDCF87E7F1
:1016700097E7809300089093010888E19AE00FB6FD
:10168000F894A895809360000FBE90936000FFCF00
:101690000895FC018091D7019091D8018617970792
:1016A00048F06115710529F48091E8008E778093E8
:1016B000E800CB0140E0009741F4411106C0809161
:1016C000E80082FF30C080E0089520912C022115AF
:1016D000B1F12530B1F12091E80023FD2EC0209119
:1016E000E80022FDECCF2091E80020FFE4CF4091FC
:1016F000F3002091F200342F009719F028303105C3
:1017000058F041E02830310509F040E02091E80030
:101710002E772093E800CFCF41914093F1000197BD
:101720002F5F3F4FE9CF80912C02811541F085302A
:1017300041F08091E80083FFC2CF81E0089582E00C
:10174000089583E00895982F9093E900891771F028
:101750007091EC002091ED005091F00021FD09C046
:101760009F5F973089F78093E9000895762F242FA3
:1017700050E03091EB003E7F3093EB003091ED0074
:101780003D7F3093ED003091EB0031603093EB0002
:101790007093EC002093ED005093F0002091EE0048
:1017A00027FDDECF08958091D10187FF13C080917E
:1017B000E80082FF06C08091E8008B778093E80004
:1017C000089580912C028111F2CF089580912C020E
:1017D0008115D9F38091E80080FFF8CF8091E8006F
:1017E0008E77ECCF2091E4003091E50095E6A901D9
:1017F0002091EC00822F817020FF06C08091E800CC
:1018000080FF06C080E008952091E80022FD1AC004
:1018100080912C02811589F0853089F08091EB0050
:1018200085FD0FC02091E4003091E5004217530779
:10183000F9F29150E1F684E0089582E0089583E0A2
:10184000089581E00895CF93DF93C8EDD0E08881BB
:101850008F7E8883E7EDF0E080818160808384E083
:1018600082BF81E08093D00188818E7F8883E2EE01
:1018700010821092DA00A1EEB0E01C9288818F777E
:10188000888388818068888388818F7D888319BC5C
:1018900010922C021092CF01109214021092CE01DD
:1018A000A0EE8C918B7F8C9388818160888342E04D
:1018B00060E080E048DFA1EEB0E08C918E7F8C93F9
:1018C000E2EEF0E0808181608083808188608083A7
:1018D000E0EE80818E7F8083888180618883DF91C4
:1018E000CF910895E8EDF0E080818E7F80831092A3
:1018F000E2001092DA001092E100A0EEB0E08C91CC
:1019000081608C9380818F77808319BCA7ED8C9147
:101910008E7F8C9380818F7E80831092D00108957A
:101920009C012115310509F40895215031098FE9F1
:101930009FE00197F1F700C00000F3CFA0E0B0E016
:10194000E4EAFCE00C94C8347C016B015A018091FC
:1019500048020AE010E08A3010F001E010E0C1E037
:10196000D0E0B601C701F5010995811115C0219696
:101970000C171D078CF0CC9F9001CD9F300D300DC2
:10198000112480E090E045E34A95F1F700000196CC
:1019900082179307C1F7E5CFCDB7DEB7EAE00C9425
:1019A000E4340F931F93CF93DF93EB018A0190915F
:1019B0002C02943059F58093E9008FEF9091E80064
:1019C00095FD06C095ED9A95F1F700008150B1F7AD
:1019D0008091E80085FF1AC005DF811112C0809157
:1019E000E80085FD06C08091E8008E778093E800CE
:1019F000F3CF88818093F1000150104011F02196BF
:101A0000EECF8091E8008E778093E800DF91CF9150
:101A10001F910F910895603229F440E250E0BC011B
:101A200082E0BFCF0895CF93DF93EC0148E050E010
:101A3000BC0181E0B6DF88E0FE01A9EDB1E00190D4
:101A40000D928A95E1F7DF91CF91089546E050E03D
:101A5000BC0184E0A6CF43E050E0BC0184E0A1CF0C
:101A6000FC016081718184E090E00C949735909145
:101A7000CA0392FB222720F9281749F080FB92F92C
:101A80009093CA0389EC93E0EBDF82E00FC80895DE
:101A90001F93CF93DF93122F8430E0F46A30D0F499
:101AA0004530C0F4C42FD0E0CC0FDD1F2AE0629F88
:101AB000C00DD11D112494E6899FC00DD11D1124A4
:101AC000632FCE0189960E947D35612FCE018A96C3
:101AD0000E947D35DF91CF911F910895CF93C091E2
:101AE000570380915A03C82B809153038115D9F075
:101AF0008091A3039091A403892B19F063DC8111D9
:101B000005D880915303C82B20E088EC91E0FC01BC
:101B10003081019631112F5F31E08E3C9307B9F788
:101B200021110E948605C093C60148E050E063E79A
:101B300072E086EC91E00E943435892BB9F088E0A0
:101B4000E6ECF1E0A3E7B2E001900D928A95E1F7AF
:101B5000E0917102F0917202309741F00280F381BE
:101B6000E02D309719F086EC91E00995CF9108951A
:101B7000811509F446C0823849F48EDB81FF41C0EB
:101B800089E3EBDBABDF89E302DCA8CF833841F4E8
:101B900083DB80FF36C083E5E0DBA0DF83E5F4CFA5
:101BA000843841F479DB82FF2CC087E4D6DB96DFF2
:101BB00087E4EACF982F9450913A30F3982F905EB3
:101BC000983058F4982F81E091FD84E090FD880FC3
:101BD00092FD82950E947605D8CF982F955A933022
:101BE00018F480E090E06BCB982F985A9B3118F452
:101BF00080E090E08BCB982F9D5C933110F460E0F7
:101C000058CC0895CF93DF93EC01B2DFCE01805E14
:101C10009109089720F06CE27EE0209711F46DE1C5
:101C20007EE0CE010E94D003DF91CF91089581150F
:101C300019F00E94700552CF0895811519F00E9485
:101C400076054CCF0895811531F090915A03982B69
:101C500090935A0343CF0895811519F00E947E0591
:101C60003DCF08958091BB02811521F082E2F4DF1F
:101C70001092BB02089510925703E8ECF1E086E061
:101C800011928A95E9F780E090E019DB80E090E01E
:101C90003DDB10925A0322DFE9EAF2E086E011927E
:101CA0008A95E9F71092A7021092A6021092A80254
:101CB000D8CBE1DF8FEF94E32CE0815090402040BF
:101CC000E1F700C0000088E19AE00FB6F894A8950B
:101CD000809360000FBE90936000FFCFCF93DF939F
:101CE000EC0180918B02883010F0C5DF80E0E82F96
:101CF000F0E0EE0FFF1FE558FD4F9E01C0833183DA
:101D00008F5F80938B02DF91CF910895CF93DF9304
:101D10008FEF9FEF4430510590F0FB01D081C181DE
:101D2000AADFD093C903C3708091CA038C7FC82BEC
:101D3000C093CA0389EC93E093DE80E090E0DF91EA
:101D4000CF910895AAE2B0E0E8EAFEE00C94CF3427
:101D500081ED91E0FC0101962091F100208321E0CA
:101D6000893D9207B9F78091D201893009F457C0B3
:101D7000C8F4823009F4B3C0833009F483C08130E1
:101D800081F18091E80083FFE7C08091D1019091BB
:101D9000D2019A3008F0E0C0E92FF0E0E953FA4CA4
:101DA0000C941E358A3009F48AC08B3051F780912B
:101DB000D101813231F78091D5019091D601892BE3
:101DC00001F78091E800877F8093E800ECDC81E0F8
:101DD0009091D301911101C080E0809302014BDF0B
:101DE000D0CF8091D101813A61F68091E800877F60
:101DF0008093E8008091D5019091D601892B59F00C
:101E000060E080E090E070E044DC8091E8008B7757
:101E10008093E800B6CF68E089ED91E0F4CF80913F
:101E2000D101813209F0ADCF8091D5019091D601D9
:101E30008D7F892B09F0A5CF8091E800877F809363
:101E4000E8008091E80082FF18C02091F3008091A3
:101E5000F200922F029731F48091F100813011F05D
:101E6000863021F48091F100809301018091E80097
:101E70008B778093E80097DC84CF80912C028111CE
:101E8000E0CF7FCF8091D101813A09F07ACF809164
:101E9000D5019091D601892B09F073CF8091E8008C
:101EA000877F8093E8008091E80080FFFCCF8091DD
:101EB00002018093F1008091E8008E77DACF809163
:101EC000D101813209F05DCF8091E800877F809356
:101ED000E80069DC8091D4018093000152CF8091A9
:101EE000D101813A09F04DCF8091E800877F80933E
:101EF000E8008091E80080FFFCCF80910001D9CFFD
:101F0000803889F0823841F58091D5018F70873013
:101F100018F58093E9008091EB0085FB882780F914
:101F20001092E90006C080911402880F9091CE01B2
:101F3000892B9091E800977F9093E8008093F100BF
:101F40001092F1008091E8008E7723C0811116C0B5
:101F50008091D301813009F18091E80083FF0AC0AC
:101F60008091E800877F8093E8008091EB00806299
:101F70008093EB00AA96E3E00C94EB34823061F797
:101F80008091D301811579F01092E9008091E800E9
:101F9000877F8093E80007DCDFCF933009F080E093
:101FA00080931402F1CF8091D5018F70282F21509A
:101FB000263090F68093E9002091EB0020FFE4CFDB
:101FC000933031F48091EB0080628093EB00DCCFA2
:101FD0009091EB0090619093EB0021E001C0220F03
:101FE0008A95EAF72093EA001092EA008091EB00CC
:101FF0008860EBCF8111B0CF8091D3018F77182FFC
:102000008091E3008078812B8093E3008091E80049
:10201000877F8093E800C7DB8091E80080FFFCCFDA
:102020008091E30080688093E30083E0111101C098
:1020300082E080932C0290CF8058823008F08CCFC1
:102040008091D3019091D4018C3D23E0920789F5D2
:1020500083E08A838AE289834FB7F894DE0113967E
:1020600020E03EE051E2E32FF0E0509357008491EE
:1020700020FF03C082958F703F5F8F708A30B8F069
:10208000895C8D931D922F5F243169F74FBF80913A
:10209000E800877F8093E8006AE270E0CE01019655
:1020A000F8DA8091E8008B778093E80055CF805D67
:1020B000E8CF292F30E02330310509F44EC078F500
:1020C0002130310509F486C08BE590E0EDE8F1E0C0
:1020D0002230310509F040CF2091E800277F20937E
:1020E000E8002091D7013091D8018217930708F4B6
:1020F0009C0140E02115310509F071C041116FC00C
:102100008091E80082FDCDCF80912C02811549F2AB
:10211000853039F28091E80083FFF2CFC2CF809101
:10212000D5019091D6012132310509F444C0223203
:10213000310509F011CF8330910508F00DCFFC0176
:10214000EE0FFF1FE15CFE4F0190F081E02D845CFB
:102150009E4FDC018C9190E010C0282F30E082303F
:1021600011F12330310568F4232BA9F4E2E5F2E004
:10217000E4918E2F90E0E2E5F2E0009709F4ECCED6
:10218000ABCF09F0E9CEEAEFF1E0E4918E2F90E0D9
:10219000EAEFF1E0F2CFE2E4F2E0E4918E2F90E09A
:1021A000E2E4F2E0EACFE8E1F2E0E4918E2F90E0A1
:1021B000E8E1F2E0E2CF8330910508F0CDCE880F60
:1021C000991FFC01EB5BFE4F0190F081E02D89E04F
:1021D00090E082CF82E190E0E8EEF1E07DCF809167
:1021E0002C02811509F45DCF853009F45ACF809116
:1021F000E80083FD56CF8091E80082FD81CF809179
:10220000E80080FF77CF4091F3008091F200942F97
:102210002115310519F08830910550F041E00897FB
:1022200009F040E08091E8008E778093E80062CF6B
:1022300044914093F1003196215031090196E8CF45
:10224000803809F089CE8091E800877F8093E8008C
:102250008091CF018093F10075CE81117DCE809168
:10226000D301182F823008F077CE8091E800877F65
:102270008093E8001093CF0196DA1115D9F084E02D
:1022800080932C0242E061EC81E05DDA42E261EC95
:1022900084E059DA42E261EC82E055DA42E260EC35
:1022A00083E051DA80912C02843051F482E08093F3
:1022B000030152CE8091E30087FDE1CF81E0E0CFC2
:1022C00081E0F5CF80913101877F8093310180914A
:1022D000BB02811103C082E00E947E058091310122
:1022E00084FF06C08F7E8093310182E00E947005DA
:1022F0008091310185FF06C08F7D8093310180E29E
:102300000E947005EBCBCF93DF93EC014A855B8590
:102310006E857F850E9447098B810E947E058C8196
:102320000E947605DBDB86E019928A95E9F7DF915A
:10233000CF910895CF93DF93EC018D8181FD13C080
:1023400082608D8380915A039B81892B80935A03ED
:102350008C810E947005C2DB488559856E857F851A
:10236000CE010E94470910923F03109240038D81D5
:1023700080FD02C0CE01C7DFDF91CF910895AFE0AD
:10238000B0E0E5ECF1E10C94C734FE013196DF01D9
:102390008AE01D928A95E9F78DE4C82E81E0D82E57
:1023A0007F01AE2E9F2C07E511E0F60181916F01B0
:1023B0008F3F09F43DC0F894E82FE295EF70F0E00C
:1023C00021A18F7041E001C0440F8A95EAF7922F56
:1023D000942B91A392A1842F8095892382A3789432
:1023E00000C0E2E5F1E031E0B12C21912F3F79F01E
:1023F000A22FA295AF70A05EB0E08C9190E02F70FC
:1024000002C0959587952A95E2F780FF77C080E016
:10241000B82A330F0E171F0741F7F60182918F3F3D
:1024200011F00E94710780EA8A95F1F7F701B082F6
:102430008FEFE81AF80A82E591E08C159D0509F006
:10244000B4CF4AE050E06A2D792D8BE592E00E94EE
:102450003435009749F02AE0EA2DF92DABE5B2E0DA
:1024600001900D922A95E1F700915A0210E0005B6D
:102470001D4F892B09F444C081E080934F020E94D4
:10248000D60980934D0290934E028091650281158A
:1024900009F490C07E018BE0E80EF11CF70185E0A5
:1024A00011928A95E9F7809148028A3008F04CC071
:1024B0004EEC53E1B701C80141DA811509F468C057
:1024C00041E753E1B701C80139DA811509F460C069
:1024D0001092480280914C0290E045E050E0B70134
:1024E000805B9D4F0E94343521E020934B02892B65
:1024F00009F041C02F96EBE00C94E334832F88CF92
:1025000080914F02811509F4C0CFE0904D02F09008
:102510004E020E94D6098E199F09059708F4B5CF7F
:1025200045E050E06BE572E0C8010E943435892B2C
:1025300041F085E0EBE5F2E0D80101900D928A953B
:10254000E1F710924F02A1CFC0904902D0904A0209
:102550000E94D6098C199D09843F914008F0A8CFAC
:1025600080914B02811531F2F70185E011928A9535
:10257000E9F710924B02A0914C02B0E0A05BBD4F76
:1025800085E0FE013B9601900D928A95E1F7B2CF6E
:10259000809148028F3F39F40E94D6098093490206
:1025A00090934A02DDCF8F5F809348028A3008F40F
:1025B00091CFF2CF85E0F801A2E3B2E001900D9255
:1025C0008A95E1F782E392E00E946B0880933102E2
:1025D000C0903702D0903802E0903902F0903A0271
:1025E0008091440290914502A0914602B091470229
:1025F000C816D906EA06FB0609F47CCFC09244024D
:10260000D0924502E0924602F092470209D8C61ADB
:10261000D70AE80AF90AC0926702D0926802E092EB
:102620006902F0926A0266CF9B01BA01FC01329600
:10263000E4914E2F50E06E17710550F00496FC01A6
:1026400065917491C9010E94413580E090E0089540
:102650008FEF9FEF0895EF92FF921F93CF93DF9339
:1026600000D000D0CDB7DEB77B01FC0133961491CA
:1026700019821A821B821C82452B61F48FEF9FEF17
:102680000F900F900F900F90DF91CF911F91FF90BF
:10269000EF90089544E050E09E012F5F3F4FB90155
:1026A000C3DF019659F381E090E002C0880F991FC3
:1026B0001A95E2F7A92FAA0FAA0BBA2F49815A81BE
:1026C0006B817C8184239523A623B72321E0892B6A
:1026D0008A2B8B2B09F420E0F701208380E090E027
:1026E000CFCFCF92DF92EF92FF921F93CF93DF93E2
:1026F00000D000D0CDB7DEB7C0902D02D0902E0212
:10270000E0902F02F09030020E94100BDC01CB0110
:102710008C199D09AE09BF0911E084369105A10508
:10272000B10578F10E941C0BDC01CB010296A11DC2
:10273000B11D89839A83AB83BC83809125019091DD
:1027400026018F5C9D4F20912401422F50E02530BF
:1027500008F044E09E012F5F3F4FB9010E944135D0
:1027600082E090E00E945234182F811551F00E94AF
:10277000100B60932D0270932E0280932F02909382
:102780003002812F0F900F900F900F90DF91CF911B
:102790001F91FF90EF90DF90CF900895AF92BF927E
:1027A000CF92DF92EF92FF921F93CF93DF9300D0EF
:1027B00000D000D0CDB7DEB75B0180E090E00E9492
:1027C0005234182F811509F461C080911701482FE8
:1027D00050E0811141E060911801709119016F5C26
:1027E0007D4FCE0106960E944135C0904002D090A8
:1027F0004102E0904202F09043020E94100BDC0183
:10280000CB018C199D09AE09BF0984369105A1053C
:10281000B10538F482E392E00E946B089E8189172B
:10282000A9F181E090E00E9452348115E1F180919C
:102830001F01482F50E0863008F045E060912001EC
:10284000709121016F5C7D4FCE0101960E94413550
:1028500082E392E00E946B089E81891324C00E944B
:10286000100B609340027093410280934202909358
:10287000430285E09E012F5F3F4FF901ABE3B2E0D9
:1028800001900D928A95E1F781E00EC085E0E2E3C8
:10289000F2E09E012F5F3F4FD90101900D928A9582
:1028A000E1F71111E6CF80E095E0EBE3F2E0D5012E
:1028B00001900D929A95E1F70F900F900F900F9065
:1028C0000F900F90DF91CF911F91FF90EF90DF90CD
:1028D000CF90BF90AF9008950F931F93CF93DF9346
:1028E00001EA13E0C9EBD1E0CE010E946135F801A5
:1028F00061918F01681719F0CE010E947D352196F4
:10290000C13E81E0D80781F7DF91CF911F910F91F0
:102910000895FC013296E4912E2F30E04E175105B8
:1029200058F00496FC0185919491A9010E944135CB
:10293000D3DF80E090E008958FEF9FEF0895AF928E
:10294000BF92DF92EF92FF920F931F93CF93DF938B
:1029500000D000D0CDB7DEB77C015B01FC0133961F
:10296000D49019821A821B821C82452B81F48FEF2E
:102970009FEF0F900F900F900F90DF91CF911F91CD
:102980000F91FF90EF90DF90BF90AF90089544E0DB
:1029900050E0CE010196BC01C70146DE019639F335
:1029A00081E090E00D2C02C0880F991F0A94E2F795
:1029B00080959095A92FAA0FAA0BBA2F49815A8109
:1029C0006B817C8184239523A623B723F501208185
:1029D000022F017010E002C0000F111FDA94E2F71D
:1029E000212F220F220B802B912BA22BB22B89831C
:1029F0009A83AB83BC8344E050E0CE010196BC01D6
:102A0000C70187DFB6CF0F931F93CF93DF9301EA00
:102A100013E0C9EBD1E0CE010E946135F80181934A
:102A20008F012196C13E81E0D807A9F7CCE3D4E01D
:102A3000FE0185919491009711F0FC0109952C9667
:102A400085E0C437D807A1F7DF91CF911F910F918F
:102A500008951092BB031092BC038FEA8093A103E8
:102A60001092A20385E08093BD0328E833E1209310
:102A7000A3033093A4031092A5031092A60324E1AC
:102A80002093A7031092A80348E04093A903109253
:102A9000AA0327E02093AB031092AC032CE320930E
:102AA000AD031092AE031092AF031092B00320E575
:102AB0002093B1031092B2034093B3031092B40376
:102AC00048E24093B5031092B60342E34093B70344
:102AD0001092B80348EC4093B9031092BA031092D5
:102AE000BE034093C5031092C6031092BF03109219
:102AF000C0032093C1031092C2038093C3031092BA
:102B0000C7031092C803E8DEB6D81092C90310922A
:102B1000CA0380E084608093CA0389EC93E00E943A
:102B2000300D71CF0F931F93CF93DF93843008F54F
:102B30006A30F8F44530E8F4C42FD0E0CC0FDD1F44
:102B40009AE0699FC00DD11D112494E6899FC00DA4
:102B5000D11D1124CE0189960E946135082FCE0126
:102B60008A960E946135902FDF91CF911F910F912E
:102B7000089580E090E0F8CF462F20916D023091CB
:102B80006E02232B89F4703F39F4603F69F4809121
:102B90006B0290916C0208957A3030F4653020F425
:102BA000843010F4672FBECF80E090E00895CF927C
:102BB000DF92FF920F931F93CF93DF936C010091ED
:102BC000560380915503082BC3E0D0E010E0C80104
:102BD0000C2E02C0959587950A94E2F780FD0CC0F3
:102BE0002197A8F7F12C8F2DDF91CF911F910F9195
:102BF000FF90DF90CF900895FC2EB6018C2FBCDFA4
:102C00000E948306019761F3EECF0F931F93CF933A
:102C10008C01611579F0411569F0C9DFC82F682F63
:102C2000C8010E943D04B8018C2FA6DFCF911F91EF
:102C30000F9108950E947304C82FF5CF462FFC0111
:102C4000658180819181E1CFCF93DF93EC01AFDF8C
:102C5000BE0192DF0E948306DF91CF910895FC01AF
:102C60002481211529F080819181EEDF0C94FF03EE
:102C700080E008956F3C21E072078105910528F4FA
:102C8000CB018F5C9D4F0C94613580E0089585E207
:102C900090E00E946135833D69F486E290E00E94F5
:102CA00061358D3539F487E290E00E94613591E01D
:102CB0008B3709F090E0892F8170089580E090E0D3
:102CC0000E946935833E9E4F09F4E1CF80E008956C
:102CD000AAE0B0E0EEE6F6E10C94C534A0902A023A
:102CE000B0902B0281E080932A0210922B02812C5B
:102CF000912C10E0640100E01AC021E030E01330B4
:102D000021F0F701859194919C01472D602F812F2F
:102D10000E94480D739482E0E80EF11C872D8530E7
:102D200061F70F5F85E0C80ED11C0A3041F0C60183
:102D3000880F991F8A5F9C4F7C01712CDECF1F5F2B
:102D400082E3880E911C1430A9F683DE19821A8260
:102D50001B821C821D821E821F82188688EC898736
:102D60001A8601EE11E04AE050E0B801CE0101966A
:102D70000E949B35065F1F4F013382E0180799F7C9
:102D8000A0922A02B0922B022A96EDE00C94E13434
:102D90009B01883070F49AE0899FB00111246F5133
:102DA0007E4F4AE050E0C9010E94513580E090E03A
:102DB00008958FEF9FEF0895AAE0B0E0E2EEF6E10C
:102DC0000C94D034392F375569F49E012F5F3F4F53
:102DD000B901DEDF892B31F489859A852A96E2E0F4
:102DE0000C94EC348091B9039091BA03F7CFA0E131
:102DF000B0E0EDEFF6E10C94C234FE013196DF0154
:102E000080E11D928A95E9F70DE110E091E3A92E8A
:102E100092E0B92E612C712C230153944A189E2EF6
:102E20008F2E6201730181E148165104610471041F
:102E30001CF080E1C82ED12CA601B501892D982D5A
:102E40000E946E35AC0CBD1C0D2C000C00084C18FB
:102E50005D08600870080150104019F76096E0E1C5
:102E60000C94DE346FEF85E290E00E947D356FEFC9
:102E700086E290E00E947D356FEF87E290E00E944D
:102E80007D3560E088E290E00E947D3521DFAFDF94
:102E900063ED85E290E00E947D356DE586E290E08D
:102EA0000E947D356BE787E290E00C947D35A2E0CF
:102EB000B0E0EDE5F7E10C94D03463EE7EEF80E016
:102EC00090E00E94973560E082E090E00E947D35BE
:102ED00081E08093550361E083E090E00E947D35BE
:102EE000198284E18A83CE0101960E94300DBADFF7
:102EF00060E070E0AB018FE090E00E948F3560E011
:102F000070E0AB0183E190E00E948F352296E2E011
:102F10000C94EC348B3258F4853098F0E82FE5505F
:102F2000E63278F4F0E0EF52FA4C0C941E3583341C
:102F300050F48A3308F060C0853331F091E0883373
:102F400059F090E009C0E9F781E00E9423040E9453
:102F50003B0E01C0ACDF91E0892F089580911502EE
:102F6000807F8093150281E08093A502F4CF809149
:102F70002A0290912B02892B71F30E943B0E8FEF56
:102F800094E32CE0815090402040E1F700C0000025
:102F90000E94370B90911502892F8E7F90FF8160E0
:102FA0008093150280FDD7CF817F80931502D3CF08
:102FB00090911502892F8D7F91FF82608093150279
:102FC00081FFC9CF809115028160EFCF90911502EA
:102FD000892F8B7F92FF84608093150282FDF2CF50
:102FE000BACF90911502892F877F93FF88608093D5
:102FF000150283FDE7CFAFCF895391E001C0990F50
:103000008A95EAF7892FA1CF8D51F7CFCF93C82F9B
:103010008115C9F08238C9F40E944C0981FD13C0A2
:1030200089E30E94AD090E946E0D8FEF97EE23E0B9
:10303000815090402040E1F700C0000089E30E94E9
:10304000C7090E946E0DCF9108958338A1F40E94A4
:103050004C0980FDF8CF83E50E94AD090E946E0DFA
:103060008FEF91EE24E0815090402040E1F700C0C6
:10307000000083E5E4CF8438A1F40E944C0982FD6E
:10308000E2CF87E40E94AD090E946E0D8FEF91EEB2
:1030900024E0815090402040E1F700C0000087E428
:1030A000CECF8450813A08F0AFC08091A502813024
:1030B000D9F0823091F181112DC080915703823275
:1030C00021F48C2F27DF8111BECFE8ECF1E0808165
:1030D000C81709F4C9C0319681E0EE3CF807B9F78A
:1030E0008C2F0E94AD09ADCF80915703823249F3F6
:1030F000C43181F048F4CB3009F4A5CFC03129F7B1
:1031000082E08093A5029FCFC93221F0C83309F431
:103110009ACFDBCF1092A502D8CFCF3409F46AC082
:10312000C0F4C832A0F4CE3180F5C73009F451C0E4
:10313000C43109F088CF8091A402811509F483CFAE
:103140001092A4021092A2021092A3027CCFC93264
:10315000F0CFC13509F450C0C23509F44FC086EF35
:10316000C03509F070CFE091A202F091A302309730
:1031700009F469CF2081982F990F990B820F911D27
:103180009130F4F18FEF80835ECFCD51C093A402D4
:10319000C430C9F078F480E391E0C23031F081EAC4
:1031A00092E0C33011F48FE291E08093A2029093F9
:1031B000A30249CFC53051F08CE291E0C630A9F3AB
:1031C0001092A40240CF8EE291E0EFCF8DE291E029
:1031D000ECCF1092A10284E180933001C0932F01C3
:1031E0008CE380932E0188E080932D0188E2809308
:1031F0002C0129CF8AE0B7CF8FEFB5CF81E0B3CFD5
:1032000097FFC1CF10821FCF8C2F805E883050F483
:1032100081E0C1FD84E0C0FD880FC2FD82950E945F
:1032200070050FCF8C2F855A833030F48C2F845249
:10323000990B0E945F0907CFEC2FE85AEB3150F44D
:10324000F0E0EE0FFF1FE357FE4F808191810E9457
:103250008609F9CE8C2F8D5C833108F0F4CE61E0C5
:103260008C2F0E94590AEFCE8C2F0E94C7090E9412
:103270006E0D36CFCF93DF93EC01805E91090897F6
:1032800020F063E27EE0209711F467E17EE0CE015A
:103290000E94D0038C2FBADEDF91CF910895611583
:1032A00029F020915A03226020935A039C01305246
:1032B000303308F490E0DECFA0E0B0E0E2E6F9E1E0
:1032C0000C94CB34EC018B01D42E8091310182FF20
:1032D00062C0E0904503F0904603EC16FD0619F03D
:1032E000209709F058C0809131018B7F8093310184
:1032F000C1E081FD10C08091430390914403980187
:10330000281B390BC1E080911101909112012817FF
:10331000390708F4C0E080913101C0FB81F9809346
:1033200031016C2FC7010E9446088091570381FF2D
:1033300008C08091310180618093310182E00E9458
:1033400076058091570385FF08C080913101806226
:103350008093310180E20E9476056C2FC7019FDFC8
:10336000D11429F08091BC038076803239F18091AC
:10337000BF039091C0030E94900C809145039091EF
:1033800046039C013052303308F490E00E94020E54
:103390000E9462110FC0CE0190529033A0F48C2F86
:1033A00090E00E94020E8091450390914603C81759
:1033B000D90771F30093430310934403CDB7DEB7ED
:1033C000E7E00C94E734CE01ECCF1F93CF93DF936B
:1033D000182FC091C103D091C203893321F0C0914D
:1033E000BF03D091C003812F11DE209739F4812FC4
:1033F0000E94B80DDF91CF911F9108958FE99FE052
:103400000197F1F700C000002197EFCFA0E0B0E0F6
:10341000ECE0FAE10C94CB347B01C42FD22FD02EF8
:103420008115B1F040934E030E94D6098093E901C3
:103430009093EA0181E0C1FD84E0C0FD880FC2FDE8
:1034400082950E94170ECDB7DEB7E7E00C94E73403
:1034500080914E03481336C00091E9011091EA01B2
:103460000E94D609801B910B8C01C701A5DC0817AF
:10347000190740F51D2F105ECD17B1F08C2F877006
:10348000C1E09C2F01C0990F8A95EAF7892F0E940D
:103490001D0E183048F48D2F877001C0CC0F8A950F
:1034A000EAF78C2F0E94170E8D2D8FDF81E0D1FD62
:1034B00084E0D0FD880FD2FD8295183020F60E945E
:1034C0001D0EC1CF81E0C1FD84E0C0FD880FC2FDAB
:1034D0008295F5CFA0E0B0E0E0E7FAE10C94C934C2
:1034E000EC0198819130D8F009F03FC0898181309A
:1034F00021F48A81239669DFF4CF823021F48A8116
:10350000239684DDEECF833029F48A8123960E94AE
:10351000B80DE7CF843041F022968111E2CFCDB7CC
:10352000DEB7E9E00C94E5348A81239620E030E0B0
:103530009AE0482F4053550B4A30510560F0211551
:10354000310559F3EFE9FFE03197F1F700C00000D2
:1035500021503109F4CF929FB001939F700D112437
:103560009A01260F371F8991E4CF2196E92FF0E0C9
:10357000EA57FD4F8491B82E292F2695269526953A
:1035800030E0F901EA58FD4FE4909770F12C092ED4
:1035900002C0F594E7940A94E2F7F901EA59FD4F65
:1035A000C490D12C092E02C0D594C7940A94E2F796
:1035B0002A5A3D4FF901049110E002C01595079574
:1035C0009A95E2F7E0FE02C081EE20DDC0FE02C067
:1035D00086EE1CDD8B2D1ADD8B2D0E94B80DC0FEF2
:1035E00003C086EE0E94B80DE0FE03C081EE0E948B
:1035F000B80D00FF76CF8CE27ECFA6E0B0E0E3E02E
:10360000FBE10C94C2347C01FC018481811509F436
:103610000DC260E0C70112DBF7012681203170F492
:10362000409161033091600343132CC030919F039C
:10363000311521F03091A003303120F1F7013581AF
:1036400031110CC0903508F09FC0903208F0B3C023
:10365000883E910588F4803E9105A0F48093AF02E6
:103660009093B002F7018281938180935E039093DF
:103670005F031092320106C09C0131503F3170F758
:103680008111ECCF61E0C701D9DA8C01F7018581A6
:10369000811531F1E0913F03F0914003309701F142
:1036A0000E171F07E9F08E2F887F90E0892B09F015
:1036B00084C0F0E0E295F295F07FFE27E07FFE27E0
:1036C000E154FD4F85818460858300831183CF01A0
:1036D0000E949A1110925A0361E0C701AFDA8C017F
:1036E000F7018581811509F4E7C0C8019757803833
:1036F000910508F082C1003108F089C16EEC71E0DB
:1037000080E090E0B7DA811182C1A12CB12C450193
:10371000011156C08E010F5F1F4FF80184E0119216
:103720008A95E9F7B401C501A5DA8983811509F401
:103730006EC1240135019FEF491A590A690A790AB5
:103740008130F9F4B201C30195DAD82E8A8381154C
:1037500009F45DC1B401C5016E5F7F4F8F4F9F4F6C
:103760002D2D2150233008F042C023E0820E911C01
:10377000A11CB11C240135017DDA8B83811509F46C
:1037800061C0C801A7DE5EC0803E22E5920768F4F2
:10379000803822E5920708F075CF9C01205232450F
:1037A0002032310508F05ACF6DCF9C0127573C4796
:1037B00022303105F7CF2031F5CFE0E0F0E082CFC5
:1037C0008FEC881681E09806A104B10409F41FC1AA
:1037D000B401C5014FDA9FEF891A990AA90AB90AFB
:1037E0008111EECF015094CF2B013C012BC02D2D28
:1037F0002550233080F52401350123E0420E511C71
:10380000611C711C37DA8B838115E1F084E0880E2E
:10381000911CA11CB11CB201C3012CDA8C8381154F
:1038200079F08B819C8181302FEF920710F0982FD7
:1038300080E02D2D263049F0273051F00E94CB2911
:10384000240135014201530168CF0E948D29F8CF30
:103850000E94AC29F5CF2D2D243031F60BDAD82E6D
:10386000811509F4D4C0B401C5016D5F7F4F8F4F3E
:103870009F4F00DA811509F4CAC094E0890E911CAB
:10388000A11CB11C24013501282F2150330B4FEF0F
:10389000429FC001439F900D11242D2D2150330BC9
:1038A000820F931F009771F20197EFE9FFE03197C4
:1038B000F1F700C00000F6CF173508F4CBC018357B
:1038C00008F0F7C7680189EAD80E61EB72E08C2D29
:1038D0005FDA892B39F5C60182959295907F9827FA
:1038E000807F9827FC01E154FD4F2281213009F0AF
:1038F0006FC02091B1023091B202232B99F0209138
:10390000B3023091B402232B69F02091B5023091BB
:10391000B6024091B7025091B802242B352B232BCD
:1039200009F460C08091BB02811509F485C1C09083
:103930005703D09053030E94D60988579C4E80931A
:10394000BC029093BD02F7018581811509F474C111
:103950008D2D8C298D79A9F5103508F0CCC0103447
:1039600008F04DC1063E110509F4EAC0C8019052A5
:10397000903208F0D5C08681803108F432C1C02E63
:10398000D12C8091310180FF44C18DEF0E947E05D2
:103990008DE2C816D10409F49FC108F093C188E2F2
:1039A000C816D10408F037C18EE1C816D10408F05A
:1039B00037C184E0C81AD1088AE1C816D10408F4D6
:1039C0008BC10E94320E8091BE020E94700534C1EC
:1039D000223009F0A7CF2091B5023091B602232BF7
:1039E00009F4A0CFFC01EC53FD4F20812E7F2083F2
:1039F00081549D4F0E949A1195CF03378CE7180789
:103A000049F58091BB028115A9F00E94320E809188
:103A10005B03877059F0F7018581811539F080913A
:103A2000CA0382FF03C082E00E9456052696E0E1A9
:103A30000C94DE34109257030E9486050E94D6092A
:103A400088579C4E8093BC029093BD0281E0809386
:103A5000BB02DDCF023A82E51807A1F150F4C8019C
:103A60009052903210F1013E110561F1053E1105B1
:103A700003C0023B82E5180709F054CF25EE30E081
:103A8000277081E001C0880F2A95EAF7482F20911E
:103A9000BE023091BB023115E9F0F70135813115D5
:103AA000A1F0282B2093BE02B2CFF701868180318E
:103AB00008F038CF812F8F7190E08230910511F09E
:103AC0004297DACF21EE30E0DBCF809582238093DE
:103AD000BE029DCF322F342309F424CF982F909526
:103AE00092239093BE020E947605F701858181158D
:103AF00009F48DCF17CF003E82E51807C0F4003CD3
:103B000082E51807E8F4003A82E5180758F4003611
:103B100082E51807A8F4C80192558034910580F019
:103B200068012FCF043B82E5180751F0F9CF093720
:103B30008CE7180708F051C007378CE7180780F3A7
:103B40008091BC0380FF3AC10E94D6096C01F70145
:103B50008581811509F443C18091310182FF05C03F
:103B600040E0B60180E090E0A7DB04318CE7180765
:103B700009F431C105318CE7180709F4CFC00331CE
:103B80008CE7180709F40DC1C8019052903308F072
:103B9000CFC01092450310924603F701958191150D
:103BA00009F497C210924E03980130572332310521
:103BB00008F08FC284E090E00E9469358093C903C9
:103BC0009093CA03F801E150F047E232F10508F0A2
:103BD000CAC1E950FA4C0C941E350B378CE7180714
:103BE000A4CF812F8F71843109F4AACF863161F07F
:103BF0000E94320E8091BE020E947005A1CF868184
:103C0000803108F0BCCE9CCF66EEC62E62E1D62E87
:103C1000B8CE8FEFBBCE8AE2C816D10409F0D1CE60
:103C20008091BE02811531F080915A0392E089277C
:103C300080935A030E946E0D912F975509F080CF03
:103C4000A02E88EFA822B12CA114B10409F0DFCE78
:103C5000E02FF0E0E295F295F07FFE27E07FFE276F
:103C6000CF0181549D4F6C01D70115968C91EC5377
:103C7000FD4F908180FB90F99083811599F10E940E
:103C8000D6098093410390934203F60182818F5FAE
:103C9000828380915A0390915703892B838380916B
:103CA000530384834681578166857785C6010E94C8
:103CB0004709F601858181FF5801A0923F03B09228
:103CC00040033ECF8CE4C816D10409F4A9CF8DE29D
:103CD000C81682E0D806A2CF80915A0382608093F2
:103CE0005A039ECFF6014485558566857785C601C2
:103CF0000E944709F601858181FF22CFC6010E94FB
:103D0000831180913F03909140030817190709F030
:103D100017CF10923F031092400312CF90913101C0
:103D2000892F8E7F90FF8160809331010E94621104
:103D30008091310180FF42C00832110508F064C053
:103D40000E31110508F071C0C80104974A9770F54B
:103D50008091BC0384FD2AC0F7018581811509F497
:103D6000D2C08091530390915703892B8D7F09F422
:103D700061C010924503109246038091BC0381FDFF
:103D800059C060E0C8010E94460860E0C80187DAB7
:103D9000809153038D7F0E941E0A82E00E94560587
:103DA00036CE80913101816080933101F7018581A8
:103DB000811521F01092450310924603F701858189
:103DC000F801E851FC47E730F10508F0E6CEE75E80
:103DD000F94C0C941E35809131018E7FA5CF8091D6
:103DE00031018F7E013E110531F0053E110531F4A0
:103DF000809131018F7D809331019ACFC80190521B
:103E0000903308F095CFC9CE0933110558F40D321F
:103E1000110518F40B32110549F68091BC0382FD9F
:103E2000C5CF9ACF04361105F7CF8091BC0383FD2F
:103E3000BDCF92CF87E0F701A7E4B3E001900D92E8
:103E40008A95E1F71092490310924A038091450345
:103E50009091460308171907C1F52091BC0325FF6F
:103E600034C03091310131FF02C026FF2EC02091B5
:103E70004303309144035601A21AB30A0E94DC1690
:103E8000A816B90610F58091570381FF08C08091EC
:103E9000310180618093310182E00E94760580913A
:103EA000570385FF08C08091310180628093310102
:103EB00080E20E9476056091310166956170809183
:103EC000450390914603EBD9A2CD80915303909185
:103ED0005703982B91FBBB24B0F88D7F0E941E0ADC
:103EE0000093450310934603C0924303D0924403CA
:103EF0008B2D880F8460982F80913101897F982BBA
:103F0000909331014ACF40E0B601C801D5D97FCDA9
:103F100006E221EE41EE6AE17CE778DA78CD07E24D
:103F200025EE45EE6BE17CE7F8CF06E221EE40EEB0
:103F300068E17CE7F2CF07E225EE44EE69E17CE739
:103F4000ECCF06E221EE42EE6CE17CE7E6CF07E241
:103F500025EE46EE6DE17CE7E0CF08E221E045EE9C
:103F60006EE17CE7DACF8091C90381608093C90359
:103F700089EC93E00E94300D0E943B0E48CD809169
:103F8000CA0388608093CA03F3CF8091C90382601B
:103F9000EDCF8091C9038460E9CF8091C903886027
:103FA000E5CF8091CA038160EDCF8091CA03826022
:103FB000E9CF8091C9038061D9CF8091C903806224
:103FC000D5CF8091C9038064D1CF0E943B0E8091F0
:103FD000C9038068CBCF8091C9038C60C7CF809123
:103FE000CA038360CFCF8091C9038E7FBFCF8091FA
:103FF000CA03877FC7CF8091C9038D7FB7CF8091D8
:10400000C9038B7FB3CF8091C903877FAFCF8091E6
:10401000CA038E7FB7CF8091CA038D7FB3CF8091C3
:10402000C9038F7EA3CF8091C9038F7D9FCF8091DD
:10403000C9038F7B9BCF0E943B0E8091C9038F7772
:1040400095CF8091C903837F91CF8091CA038C7FE4
:1040500099CF9091C903892F8B7F92FF8460877FCE
:1040600092FF886083CF8091CA03982F909590FB30
:1040700080F990FB81F986CF9091C903892F8F7BBE
:1040800096FF806473CF0E943B0E9091C903892FE5
:1040900097FB87F980586ACF61E08EE090E00E943C
:1040A0007D3566CF60E0F9CF9091C903892F8F7E6F
:1040B00094FF80615BCF9091C903892F8E7F90FF21
:1040C000816054CF9091CA03892F877F93FF8860C6
:1040D00059CF06318CE71807C9F580915703309105
:1040E000BB0330FD24C0282F2A7A31FF04C0482F9B
:1040F000417109F020E032FF04C0482F487809F0F0
:1041000020E033FF03C0827209F020E09115A1F096
:1041100081E0211101C080E080934F0385E32111EC
:1041200001C089E20E94AD090E946E0D70CC282F5B
:104130002474C9F220E0D9CF80914F03811521F07A
:1041400085E30E94C709F0CF89E2FBCF07378CE7F0
:104150001807F1F008378CE7180729F19801205E5D
:1041600032452032310520F5911122C00F7181E0D6
:1041700090E002C0880F991F0A95E2F78C01682F22
:1041800083E090E00E947D35802F0E9423043FCC85
:1041900081E0911551F00E94290443E062E081E042
:1041A0000E94A60434CC82E0F4CF0E943204F5CF02
:1041B0004091500380915603282F20953FEF70E0E7
:1041C000242337232115310519F048234093500348
:1041D0000B372CE7120741F4911509F418CC0E9413
:1041E000ED030E94840813CC003482E5180708F020
:1041F0004DC0003282E5180708F04FC0103548F571
:10420000103408F05DC0911509F471C00A358CE7CF
:10421000180709F4DFC008F0C3C001308CE71807A5
:1042200009F4D6C003308CE7180709F4CBC0011598
:104230008CE7180709F05BC00E943B0E8FEF94E3F8
:104240002CE0815090402040E1F700C000000E9427
:10425000370B980130553230B0F6980145E036956D
:1042600027954A95E1F7822F8F702091500330E017
:1042700041E0082E01C0440F0A94EAF72423232BBF
:1042800011F29111AECF109257034ECF9801205CDE
:1042900032452032310508F0B6CF802F8F71209142
:1042A000500330E041E0082E01C0440F0A94EAF7C1
:1042B0002423232B09F4A7CF911509F4A8CB91CF80
:1042C000F7018681803108F09ECF911110C0212F17
:1042D0002F7081E090E002C0880F991F2A95E2F7C5
:1042E0002091500382239323892B09F090CBF7016F
:1042F0008581C080D180811509F470C0C6010E94FB
:10430000D715182F682FC6010E943D04B601812FD2
:104310000E94BC150E948306182FD92E86E0F70153
:104320009E012F5F3F4FD90101900D928A95E1F7D1
:10433000F701C580B680B2948FE0B82280915B030C
:10434000877001F1AC2CC114F1F0892F807F80348B
:1043500061F0812F805E8830A8F0892F807E8032C6
:1043600021F4123078F0B11469F08091CA0382FF11
:1043700009C082E00E94560580915B038770AA24E1
:10438000A3948111A12C8D2D82958F70882E912C54
:104390008C3008F042C0F401E05EF94C0C941E35FC
:1043A0000B358CE71807C1F00C358CE7180709F0BE
:1043B0009ECF8091CA03002482FF0394802D0E9427
:1043C000370D95CF6FEF7FEF80E090E00E9497353B
:1043D0000E94590E81E0F3CF80E0F1CFC6010E9428
:1043E0007304182F93CF0D2D0F708D2D803110F089
:1043F0000295007FC11409F449C0011559F0812FBD
:10440000805E883010F011113BC0802F0E94700533
:104410000E946E0D812F0E94061888E0881A91086C
:1044200084E08816910418F40E944C09A12C812F75
:104430009D2D0E94FF03811541F0C11409F40FC2A4
:10444000B11409F403C21092CD03A114A1F080911C
:104450005B0380FD10C0F7011582869586958695D1
:104460000E942904C701C9D880915B03869586956F
:1044700086950E94320460E0C7010E941E16D6CACB
:1044800080915A03802B80935A03C2CF812F0E94C0
:10449000B80D011511F2812F805E883010F01111D6
:1044A00004C0802F0E94760503C0802F0E947E05E5
:1044B0000E946E0DB2CF0D2D0F708D2D807F80323A
:1044C00011F00295007F113040F009F472C0C11460
:1044D00009F47EC0B114D9F09DCF8091CA0382FD4A
:1044E00012C0C11449F0011529F0802F0E947005F7
:1044F0000E946E0D80E08FCF80E00E94B80D011504
:1045000009F48BCFCECFC11491F1B11004C0802F2C
:104510000E94170E82CF8B2D813089F47090530347
:10452000802F8721081709F478CF0E94D60980933D
:10453000510390935203702A709253036ECF80916F
:10454000BD03823008F469CFB81267CF802F0E9474
:10455000170E802F0E940D0A80915403902F9823EC
:10456000091709F45ACF802B8093540356CFB1100A
:1045700011C0802F0E941D0E802F0E940D0A809175
:104580005403902F982309F448CF009508230093F3
:10459000540343CF8091BD03823008F43ECF8B2D6E
:1045A000813009F03ACF80915703802309F435CF49
:1045B000E0CF8091C303C11421F08B1508F42DCFF7
:1045C000A6CFB81608F029CF802F0E941D0E25CF48
:1045D000B114D1F38091C1039091C203193321F03A
:1045E0008091BF039091C0030E94900C812F0E9484
:1045F000B80D13CF8D2D869586958370813060F030
:1046000009F00BCF812F9D2D9370C11002C080E067
:1046100090E00E94860901CF812F9D2D9370C110DB
:1046200002C080E090E00E945F09F7CE6C2D812FE0
:104630000E94590AF2CE8D2D8370A1F5C110EDCEE6
:10464000812F829586958770880F880F412F4F7034
:10465000082E01C0440F0A94EAF7212F207114FF9D
:1046600006C02FE001C0220F8A95EAF720959D2D04
:10467000969596959370923081F0822F842B93308B
:1046800031F080915503913029F0242B82230E9430
:104690002304C3CE842B822BFACF242B8091550385
:1046A0008227F5CFC11461F1D0FEB7CE812F82955C
:1046B00086958770880F880F412F4F70082E01C094
:1046C000440F0A94EAF7212F207114FF06C02FE04F
:1046D00001C0220F8A95EAF720959D2D9695969513
:1046E00093709230A1F0822F842B933031F080911F
:1046F0005603913049F0242B82230E9426048DCE4C
:10470000823008F48ACED2CF842B822BF6CF242B92
:10471000809156038227F1CF0D2D0F70C11429F01F
:10472000802F0E942904812FF3CE812F0E941D0E1D
:10473000802F0E94320471CE123F81F160F4103F4D
:10474000B9F0113F81F0C11409F47BC0B11062CE01
:104750008D2D8F7127C0133F41F1143FA1F7809138
:10476000CA0382FD2EC08D2D8F71C11411F31AC0A2
:104770008091C303C11471F0B81608F04ECE2D2DF0
:104780002F7181E001C0880F2A95EAF790915603B6
:104790008927B3CF8B1508F440CEF1CF8D2D8F71C3
:1047A000C110C7CF0E94290438CE80E0C11409F49B
:1047B000A4CF81E09D2D9F7101C0880F9A95EAF7E3
:1047C0009CCF8091BD03823048F1C114C9F0909113
:1047D0005B039770943059F410925B0310925C0362
:1047E00010925D038D2D8F710E9432041DCE63E007
:1047F000B81608F019CE8D2D8F710E94FA0914CECB
:10480000B81640F010925B0310925C0310925D03A7
:1048100064E0F1CF81E00E94560506CEC11431F06C
:1048200063E08D2D8F710E94FA09F7CD81E00E941F
:1048300056058B2D823008F4F0CD82E00E9456059B
:10484000ECCDB110C7CE8D2D8F7173CF80915903F0
:10485000809358038091570380935903F6CD40E02D
:1048600060E089819A810E94051600915703B11476
:1048700029F01092CD0300935903E7CD2091CB038B
:104880003091CC0382179307B1F78091BE0382FF6A
:10489000F0CF8091CD03811561F3809158030E9480
:1048A000170E812F0E94E519809158030E941D0E5A
:1048B000E0CF03378CE718071BC9EF92FF920F93E5
:1048C0001F93CF93DF938091A003803108F047C0FE
:1048D00080919F03811509F442C0809161039091FA
:1048E00060039817E1F17C0197E0899FE0011124B2
:1048F000FE01EE59FC4F84818115B1F191818091C7
:104900009B03981331C0908180919A0398132CC017
:104910008581811129C00281138180919C0390912E
:104920009D03081B190B60E08AE993E00E941E16A4
:104930000E94DC1608171907B8F48091A0038F7045
:1049400080618093A003C859DC4F88818F7080619B
:1049500088838AE993E00E94FD1A0E944C05CDB736
:10496000DEB7E6E00C94E834C70183958770B7CFD3
:10497000EF92FF920F931F93CF93DF93F82EE92EC0
:10498000C091610380916003C81791F187E0C89FCF
:10499000E00111248E010E591C4FF801858181150B
:1049A00089F0C8010E942F16811561F0FE01E859B7
:1049B000FC4F80818F7080618083F80180819181BC
:1049C0000E946E0EC8010E94FD1A809161039091B1
:1049D00062030196877080936103CE59DC4F898111
:1049E0008E11CECF88818F11CBCF8D81811541F271
:1049F000CDB7DEB7E6E00C94E834EF92FF921F9358
:104A0000CF93DF93EC0180913201811541F010E0EA
:104A1000812FDF91CF911F91FF90EF900895EA8051
:104A2000FB80E61AF70A84EFE81681E0F80678F7CB
:104A300060E0CE010E941E169C013052303338F7E0
:104A40000E941E05811519F38091AF029091B0026A
:104A50000E941E05182F8115D1F28091C7039091F5
:104A6000C803853F21E0920710F084EF91E0E8163B
:104A7000F90668F68E818F7080618E8388819981B6
:104A80000E946E0E0E94E304CE010E94FD1AC0CF68
:104A90002F923F925F926F927F928F929F92AF92EE
:104AA000BF92CF92DF92EF92FF920F931F93CF931B
:104AB000DF93CDB7DEB72D970FB6F894DEBF0FBEEC
:104AC000CDBF8C0186E0F801DE01189601900D92B1
:104AD0008A95E1F7F80170806180E280F38084803C
:104AE000958030918B02E0E09114A9F12AE9C22E61
:104AF00023E0D22E80919E03811157C08114D1F002
:104B0000911409F45FC2C8010E942F16811509F49F
:104B100059C260915E0370915F03C8016EDF81111D
:104B200009C087E0F801AAE9B3E001900D928A95E7
:104B3000E1F7C3DEFF24F3948FC0880F991F8558D7
:104B40009D4FDC0111962C911197261103C08C9179
:104B5000781649F0EF5F8E2F9E2F990F990B8317D0
:104B600091055CF3C3CFEF3F09F4C0CFD80116968F
:104B70008C918F7080618C93E317A0F43150309347
:104B80008B02E31778F4F0E0EE0FFF1FE558FD4FBE
:104B9000A32FB0E0AA0FBB1FA558BD4F8D919D91CB
:104BA000808391830E94E304A1CF60E08AE993E0CF
:104BB0000E941E161C0150909F0380919C039091AF
:104BC0009D035701A81AB90A60E08AE993E05114DD
:104BD00009F440C20E941E160E94DC16A816B906EF
:104BE00008F0F4C1811409F4A5CF90919B03F8015A
:104BF0008181D090A0032D2D203108F0C5C19813DC
:104C000060C090919A03808198135BC0911059C045
:104C10008D2D8F7080618093A0038AE993E00E94BC
:104C2000FD1A8091A003F8018683C0909C03F09048
:104C30009D030091610380916003081751F087E0A4
:104C4000089F800111240E591C4FF80185818111A4
:104C50001CC00E944C05F12C8F2D2D960FB6F89498
:104C6000DEBF0FBECDBFDF91CF911F910F91FF909F
:104C7000EF90DF90CF90BF90AF909F908F907F90FC
:104C80006F905F903F902F900895D280E380C8018D
:104C90000E942F1681110EC0C8010E94FD1A80913A
:104CA0006103909162030196877080936103CD2C1C
:104CB000FE2CBFCF6C2D7F2DC8019FDE8111EFCF61
:104CC000C8CFC1019052903308F07BC09110F8C05A
:104CD00040E0662D872D0E94C404811147C040E04A
:104CE000662D872D0E94C404F82E811509F419C180
:104CF0008091BE0380FFAFCF8AE993E00E94FD1A46
:104D000060E08AE993E00E941E168C0170906103B6
:104D1000C72C88E0D82E9AE9892E93E0992E8091AD
:104D20006003C81689F0560127E0C29EC001112415
:104D30008E599C4F7C0160E00E941E16582E692EF1
:104D4000F701858181118EC08D2D883008F4B5C0A2
:104D5000888599850DDE0E94E3040E944C05EAE9EE
:104D6000F3E087E011928A95E9F775CF60E0C8011A
:104D70000E941E168091BE0383FFB1CFB8018AE95D
:104D800093E00E94F0048111AACF8091A0038F705C
:104D900080618093A00380919A0390919B030E946D
:104DA0006E0E8AE993E00E94FD1AEAE9F3E087E0DB
:104DB00011928A95E9F788859985DADD0E94E304E6
:104DC00048CF911409F48BCF8091A0038160809328
:104DD000A0038091BE0381FF3ECF8AE993E00E9449
:104DE000FD1A0091610380916003081709F4C5C0A2
:104DF00027E0029FC00111248E599C4F7C010E9424
:104E00002F16811509F4B9C087E0F701AAE9B3E0CC
:104E100001900D928A95E1F7C80101968770082FDD
:104E2000809361030E944C0580916003081709F488
:104E300010CF87E0089F800111240E591C4FC80134
:104E40000E942F16811105CFC8010E94FD1A2091E2
:104E50006103309162032F5F3F4F2770022F209331
:104E60006103E2CF1052103308F06ECF8091BE0381
:104E700083FD0AC0DC2C95012395822F8770C82EF4
:104E8000052D162D47014BCFB701C4010E94F00438
:104E9000811589F3EFCF27E0729EC00111248E594E
:104EA0009C4F0E94FD1A20916103309162032F5F95
:104EB0003F4F2770722E20936103D710ECCF48CF5D
:104EC0008091A00381608093A00360E0C8010E94EC
:104ED0001E168091BE0383FF7CCFB8018AE993E060
:104EE0000E94F004811175CF8091A0038E7FF82E6F
:104EF0008093A003C8010E942F168111ACCE8F2D84
:104F00008F7080618093A00380919A0390919B039E
:104F10000E946E0E0E94E3048AE993E00E94FD1A4B
:104F20001ECF888599850E942416292F22952F70DF
:104F3000903450F49F70223080F0911599F0F80170
:104F40009681903178F488CE2A5F2F70223078F0E5
:104F5000C8010E94FD1AF52C7FCE911519F081151C
:104F600009F47ACE805E883008F476CEF1CF803FA7
:104F700008F472CE815F8330F7CFEAE9F3E087E08F
:104F800011928A95E9F750CF981314C090919A0323
:104F9000808198130FC091100DC0D682C8010E9465
:104FA000FD1A87E0F801AAE9B3E001900D928A9515
:104FB000E1F7C0CDC8010E942F16811519F08D2D83
:104FC000911031C0C8010E94FD1AB4CDB090A00369
:104FD0008B2D803130F48AE993E00E94FD1AF601AE
:104FE000C0CE811409F4A6CD90919B03F801818174
:104FF000981311C090919A03808198130CC091105E
:105000000AC0B682C8010E94FD1AF60187E011921B
:105010008A95E9F78FCDC8010E942F16811591F26C
:10502000911481F28B2D803208F47BCD80919A030C
:1050300090919B0389839A83EB82FC8280919E03EB
:105040008D831E828091A0038F83CE0101960E94E2
:10505000FD1A67CD0E941E160E94DC16A816B9061E
:1050600008F0BDCF811409F465CD911409F4AACFDD
:1050700090919B03F801818198132DC090919A0320
:105080008081981328C080919C0390919D03E81A19
:10509000F90A60E08AE993E00E941E168091C50338
:1050A0009091C603E816F90608F07BCF9091A00313
:1050B00090FD77CF903108F474CF892FF801968353
:1050C000907F903F09F46ACF982F907F905F8F7008
:1050D000892B868363CFC8010E942F16811561F04A
:1050E00060915E0370915F03C80187DC811509F44C
:1050F00018CDEAE9F3E08ACF8091A0038160809324
:10510000A00360CFABE1B0E0E8E8F8E20C94CE3465
:105110004E8B5F8B688F798F082F8A8F192F9B8F0B
:10512000811509F4B8C040E0692F8E899F890E94DB
:105130000516111549F01092CD038093CB0390937F
:10514000CC0310925A030AC02091CB033091CC03B8
:105150002817390719F481E08093CD031D8A86E072
:10516000FE017696DE011F9601900D928A95E1F779
:105170008091CA0382FF21C08091A3039091A40370
:10518000892BD9F00E94D60920915C0330915D03F0
:10519000821B930B2091A3033091A40382179307E2
:1051A00038F080915B0382FD03C082E00E945605C7
:1051B0000E94E20981110E948605011561F00B8BA6
:1051C0001C8B61E0CE010F960E941E1661E0CE019D
:1051D0000F960E941E160B8B1C8B87E0FE013F96DC
:1051E000DE01189601900D928A95E1F7CE0108969E
:1051F0004FDC811128C0209160033091610387E06A
:10520000AE01485F5F4FFA0147505109DA01019042
:105210000D928A95E1F78C858115A9F0822F90E097
:105220008395877090E0AC0134171506C1F50E9494
:105230003B0E1092600310926103EAE9F3E087E00D
:1052400011928A95E9F78091610390916003891723
:1052500049F027E0829FC00111248E599C4F18DC31
:10526000811130C08C85811112C080913201811171
:105270000EC08A859B8520915E0330915F03821B5F
:10528000930B8F3F9F4318F081E0809332016B9620
:10529000E4E00C94EA34911509F460CF52CF97E022
:1052A000929FD0011124AE59BC4F9E012F5F3F4FFA
:1052B000F90101900D929A95E1F7409360030E94E5
:1052C0004C05C1CF80916103909162030196877074
:1052D00080936103B8CFA6E0B0E0E1E7F9E20C9477
:1052E000CE340E94D6098C0180916F029091700299
:1052F0008017910771F019821A820E94D609BC01A9
:1053000049815A8180E090E0FDDE00936F021093A6
:1053100070022696E4E00C94EA34A6E0B0E0E3E9FB
:10532000F9E20C94D03480936B0290936C0290322B
:1053300030F40E943A192696E2E00C94EC3480EFA7
:1053400089838A830E94D6098160BC0149815A8180
:1053500081E091E0D7DEEFCFA6E0B0E0E2EBF9E24A
:105360000C94D03480936B0290936C02903230F4A2
:105370000E94020E2696E2E00C94EC3480EF8983C2
:105380008A830E94D6098160BC0149815A8181E0EB
:1053900090E0B8DEEFCFCF93DF93EC01BEDF8091DA
:1053A000BF039091C0030E94900CCE01D5DFDF9126
:1053B000CF9108950F931F93CF93DF938C01862F86
:1053C00061EB72E00E94C816892B91F4C091B10282
:1053D000D091B202209761F0F8018281833039F4D4
:1053E000CE01D9DFCE01D7DFCE01D5DF01C0E0F796
:1053F000DF91CF911F910F9108950F931F93CF933A
:10540000DF938C01C62F61EB72E08C2F0E94C816CF
:10541000892B09F058C0EC2FF0E0D80112968C913E
:105420001297E55FFD4F8130A9F415968C9182FDAE
:105430004FC080FF4DC082E080838091B302909185
:10544000B4020097C1F48091B1029091B20200972A
:10545000D1F111C08230A9F5D80115968C9182FD49
:1054600026C080FD0AC083E080838091B5029091C0
:10547000B6020097F1F051DF26C084E0808380916E
:10548000B7029091B8020097B1F78091B102909164
:10549000B202009701F17FDF8091B3029091B402D4
:1054A000009749F78091B1029091B202E4CF85E074
:1054B00080838091B1029091B202009721F06BDF5E
:1054C000F1CF86E08083DF91CF911F910F910895F6
:1054D00081E08083B8CF8091B3029091B402B7CFBE
:1054E0000F931F93CF93DF938C01C62F61EB72E074
:1054F0008C2F0E94C816892BA1F48091BF03909134
:10550000C0030E94900CD0E0C55FDD4F8881F80198
:10551000128218828330E9F048F4813059F08230E9
:1055200081F0DF91CF911F910F9108958430B1F0F8
:105530008530B9F78091B1029091B202009789F35A
:1055400006C08091B3029091B402009799F304DFF2
:10555000E8CF8091B5029091B602F7CF8091B70263
:105560009091B802009799F72091B1023091B20260
:105570008091B3029091B40221153105F9F20097A0
:1055800031F7C901E4CFCDB7DEB7E0970FB6F89495
:10559000DEBF0FBECDBF85B7806885BF85B7806889
:1055A00085BF84B7877F84BF0FB6F894A895809194
:1055B0006000886180936000109260000FBE80E8F8
:1055C00090E00FB6F89480936100909361000FBE55
:1055D00081E0809303018FE697E08093C40190936C
:1055E000C5010E9495070E9403150E94720C0E943B
:1055F000230C8091E20084608093E2007894809193
:105600002C02811599F08091E9001091EC008F70C7
:1056100010FB112717F9182B1092E9008091E80070
:1056200083FD0E94A20E1F701093E90082E084BDEA
:1056300093E095BD9AEF97BD80936E00109267023C
:10564000109268021092690210926A020E94471634
:10565000811102C00E9432178091D800806180932E
:10566000D8008AE18A95F1F700C08091D900182FFF
:10567000117080FD04C00E94720C10922C021093D5
:1056800065020E945E16811102C00E9457178EE0CB
:1056900090E00E94613591E0811101C090E090930B
:1056A0006602909304018091650281110E9471331A
:1056B000809104018091040190E0811101C095E086
:1056C00090935A0285E0891B80934C020DE411E00F
:1056D000F80181918F018F3F11F00E94710781E0E5
:1056E00002351807A9F7F2E5EF2EF1E0FF2E07E5E6
:1056F00011E0F70181917F018F3F11F00E94710746
:105700000E151F05B1F7E0E5F2E08AE011928A95E7
:10571000E9F7EBE5F2E08AE011928A95E9F70E9459
:105720005E16811102C00E94571782E090E00E942D
:1057300061358093150284E090E00E946935809382
:10574000C9039093CA030E94BF118FEF96E721E02F
:10575000815090402040E1F700C000000E94BF113E
:105760008091500280FF08C06FEF7FEF80E090E0F3
:105770000E9497350E94370B83E090E00E946135CC
:105780000E94230480916502811101C0ADD785E09C
:1057900091E080937102909372028E010F5F1F4F10
:1057A00080912C02853049F480912C02853009F4D7
:1057B00052C00E943B0E0E944C090E94BF1176E12C
:1057C000E72E72E0F72EE0E5CE2EE2E0DE2EF601C7
:1057D000D7019D91808120E232E02A173B0709F42E
:1057E00070C031969817A9F360906502B12C5524CA
:1057F0005394F601A1906F01F70171907F017A1423
:1058000019F17A2488248394912C872D8821A9F07A
:10581000611499F09982BA820E94D6098B839C8385
:105820005D8291E08A2D882109F490E09E83498170
:105830005A816B817C818D8165DC9394880C892DE4
:10584000853019F7F701A292B3948B2D8A3089F62F
:105850000E941C0B39C080912C02843021F11092DF
:10586000130288E190E020E40FB6F894A8958093A5
:1058700060000FBE2093600083B7817F846083BF88
:1058800083B7816083BF7894889583B78E7F83BF09
:105890000FB6F894A89580916000886180936000AD
:1058A000109260000FBE0E94BF11E0E5F2E080811F
:1058B000811103C531968AE592E08E179F07B9F7EB
:1058C00073CF981391CF07DD80916502811509F49C
:1058D0005DC0C0903F03D0904003C114D10429F1B2
:1058E000A0904103B09042030E94D6098A199B09F7
:1058F0007C01C6010E94DC168E159F05B0F48091D4
:105900003F03282F287F30E0232B09F0F6C090E0DA
:1059100082959295907F9827807F982781549D4FFC
:10592000FC01258122FF0E949A118091BC0380FF17
:105930001CC08091310182FF18C00E94D6092091BD
:10594000430330914403AC01421B530B20911101DE
:10595000309112014217530740F041E0BC018091A1
:105960004503909146030E945C198091BB0281150A
:1059700069F00E94D6092091BC023091BD02821BC1
:10598000930B8F3F9F4710F40E94320E86E0E9EAA6
:10599000F2E0D80101900D928A95E1F79090AA0269
:1059A000B090AB02C090AC02A090AD02D090AE021D
:1059B0001092AB021092AC021092AD021092AE02A5
:1059C0008C2D8B29A1F0E0902302F09024020E94FC
:1059D000D6098E199F099C019091A702911509F48F
:1059E0008FC0809130018217130608F497C08D2D67
:1059F0008A29A1F0E0902102F09022020E94D609AB
:105A00008E199F099C019091A602911509F4B6C0C8
:105A1000809113018217130608F4BEC08091AA0278
:105A2000891119C08091AB02811511F08B1113C03F
:105A30002091AC02211511F02C110DC09091AE02F5
:105A4000911511F09D1107C03091AD02311103C0C5
:105A5000822B892B11F00E94310A86E0F801A9EA15
:105A6000B2E001900D928A95E1F70E944C09909165
:105A70002502891721F0809325020E94100B809146
:105A80002C02843009F08CCE83E08093E900809171
:105A9000E80082FF85CE8091E80090E085FF0AC093
:105AA0000E94F20B50E2C52ED12C7801811509F429
:105AB000AFC091E08091E8008B778093E80091156A
:105AC00009F46ECEE0906D02F0906E02E981E1146F
:105AD000F10409F4ABC0EE3F09F0CAC08A818330FB
